{
  "contractName": "Property",
  "abi": [
    {
      "constant": true,
      "inputs": [
        {
          "name": "_interfaceId",
          "type": "bytes4"
        }
      ],
      "name": "supportsInterface",
      "outputs": [
        {
          "name": "",
          "type": "bool"
        }
      ],
      "payable": false,
      "stateMutability": "view",
      "type": "function"
    },
    {
      "constant": true,
      "inputs": [],
      "name": "name",
      "outputs": [
        {
          "name": "",
          "type": "string"
        }
      ],
      "payable": false,
      "stateMutability": "view",
      "type": "function"
    },
    {
      "constant": true,
      "inputs": [
        {
          "name": "_tokenId",
          "type": "uint256"
        }
      ],
      "name": "getApproved",
      "outputs": [
        {
          "name": "",
          "type": "address"
        }
      ],
      "payable": false,
      "stateMutability": "view",
      "type": "function"
    },
    {
      "constant": false,
      "inputs": [
        {
          "name": "_to",
          "type": "address"
        },
        {
          "name": "_tokenId",
          "type": "uint256"
        }
      ],
      "name": "approve",
      "outputs": [],
      "payable": false,
      "stateMutability": "nonpayable",
      "type": "function"
    },
    {
      "constant": true,
      "inputs": [],
      "name": "totalSupply",
      "outputs": [
        {
          "name": "",
          "type": "uint256"
        }
      ],
      "payable": false,
      "stateMutability": "view",
      "type": "function"
    },
    {
      "constant": true,
      "inputs": [],
      "name": "InterfaceId_ERC165",
      "outputs": [
        {
          "name": "",
          "type": "bytes4"
        }
      ],
      "payable": false,
      "stateMutability": "view",
      "type": "function"
    },
    {
      "constant": false,
      "inputs": [
        {
          "name": "_from",
          "type": "address"
        },
        {
          "name": "_to",
          "type": "address"
        },
        {
          "name": "_tokenId",
          "type": "uint256"
        }
      ],
      "name": "transferFrom",
      "outputs": [],
      "payable": false,
      "stateMutability": "nonpayable",
      "type": "function"
    },
    {
      "constant": true,
      "inputs": [
        {
          "name": "_owner",
          "type": "address"
        },
        {
          "name": "_index",
          "type": "uint256"
        }
      ],
      "name": "tokenOfOwnerByIndex",
      "outputs": [
        {
          "name": "",
          "type": "uint256"
        }
      ],
      "payable": false,
      "stateMutability": "view",
      "type": "function"
    },
    {
      "constant": false,
      "inputs": [
        {
          "name": "_from",
          "type": "address"
        },
        {
          "name": "_to",
          "type": "address"
        },
        {
          "name": "_tokenId",
          "type": "uint256"
        }
      ],
      "name": "safeTransferFrom",
      "outputs": [],
      "payable": false,
      "stateMutability": "nonpayable",
      "type": "function"
    },
    {
      "constant": true,
      "inputs": [
        {
          "name": "_tokenId",
          "type": "uint256"
        }
      ],
      "name": "exists",
      "outputs": [
        {
          "name": "",
          "type": "bool"
        }
      ],
      "payable": false,
      "stateMutability": "view",
      "type": "function"
    },
    {
      "constant": true,
      "inputs": [
        {
          "name": "_index",
          "type": "uint256"
        }
      ],
      "name": "tokenByIndex",
      "outputs": [
        {
          "name": "",
          "type": "uint256"
        }
      ],
      "payable": false,
      "stateMutability": "view",
      "type": "function"
    },
    {
      "constant": true,
      "inputs": [
        {
          "name": "_tokenId",
          "type": "uint256"
        }
      ],
      "name": "ownerOf",
      "outputs": [
        {
          "name": "",
          "type": "address"
        }
      ],
      "payable": false,
      "stateMutability": "view",
      "type": "function"
    },
    {
      "constant": true,
      "inputs": [
        {
          "name": "_owner",
          "type": "address"
        }
      ],
      "name": "balanceOf",
      "outputs": [
        {
          "name": "",
          "type": "uint256"
        }
      ],
      "payable": false,
      "stateMutability": "view",
      "type": "function"
    },
    {
      "constant": true,
      "inputs": [],
      "name": "symbol",
      "outputs": [
        {
          "name": "",
          "type": "string"
        }
      ],
      "payable": false,
      "stateMutability": "view",
      "type": "function"
    },
    {
      "constant": false,
      "inputs": [
        {
          "name": "_to",
          "type": "address"
        },
        {
          "name": "_approved",
          "type": "bool"
        }
      ],
      "name": "setApprovalForAll",
      "outputs": [],
      "payable": false,
      "stateMutability": "nonpayable",
      "type": "function"
    },
    {
      "constant": false,
      "inputs": [
        {
          "name": "_from",
          "type": "address"
        },
        {
          "name": "_to",
          "type": "address"
        },
        {
          "name": "_tokenId",
          "type": "uint256"
        },
        {
          "name": "_data",
          "type": "bytes"
        }
      ],
      "name": "safeTransferFrom",
      "outputs": [],
      "payable": false,
      "stateMutability": "nonpayable",
      "type": "function"
    },
    {
      "constant": true,
      "inputs": [
        {
          "name": "_tokenId",
          "type": "uint256"
        }
      ],
      "name": "tokenURI",
      "outputs": [
        {
          "name": "",
          "type": "string"
        }
      ],
      "payable": false,
      "stateMutability": "view",
      "type": "function"
    },
    {
      "constant": true,
      "inputs": [
        {
          "name": "_owner",
          "type": "address"
        },
        {
          "name": "_operator",
          "type": "address"
        }
      ],
      "name": "isApprovedForAll",
      "outputs": [
        {
          "name": "",
          "type": "bool"
        }
      ],
      "payable": false,
      "stateMutability": "view",
      "type": "function"
    },
    {
      "anonymous": false,
      "inputs": [
        {
          "indexed": true,
          "name": "_from",
          "type": "address"
        },
        {
          "indexed": true,
          "name": "_to",
          "type": "address"
        },
        {
          "indexed": true,
          "name": "_tokenId",
          "type": "uint256"
        }
      ],
      "name": "Transfer",
      "type": "event"
    },
    {
      "anonymous": false,
      "inputs": [
        {
          "indexed": true,
          "name": "_owner",
          "type": "address"
        },
        {
          "indexed": true,
          "name": "_approved",
          "type": "address"
        },
        {
          "indexed": true,
          "name": "_tokenId",
          "type": "uint256"
        }
      ],
      "name": "Approval",
      "type": "event"
    },
    {
      "anonymous": false,
      "inputs": [
        {
          "indexed": true,
          "name": "_owner",
          "type": "address"
        },
        {
          "indexed": true,
          "name": "_operator",
          "type": "address"
        },
        {
          "indexed": false,
          "name": "_approved",
          "type": "bool"
        }
      ],
      "name": "ApprovalForAll",
      "type": "event"
    },
    {
      "constant": false,
      "inputs": [],
      "name": "createProperty",
      "outputs": [],
      "payable": false,
      "stateMutability": "nonpayable",
      "type": "function"
    },
    {
      "constant": false,
      "inputs": [
        {
          "name": "_tokenId",
          "type": "uint256"
        },
        {
          "name": "_uri",
          "type": "string"
        }
      ],
      "name": "setURI",
      "outputs": [],
      "payable": false,
      "stateMutability": "nonpayable",
      "type": "function"
    },
    {
      "constant": true,
      "inputs": [
        {
          "name": "_tokenId",
          "type": "uint256"
        }
      ],
      "name": "getURI",
      "outputs": [
        {
          "name": "",
          "type": "string"
        }
      ],
      "payable": false,
      "stateMutability": "view",
      "type": "function"
    }
  ],
  "bytecode": "0x60806040526040805190810160405280600881526020017f50726f70657274790000000000000000000000000000000000000000000000008152506040805190810160405280600381526020017f5050540000000000000000000000000000000000000000000000000000000000815250620000ad6301ffc9a77c010000000000000000000000000000000000000000000000000000000002620001db640100000000026401000000009004565b620000ea6380ac58cd7c010000000000000000000000000000000000000000000000000000000002620001db640100000000026401000000009004565b62000127634f558e797c010000000000000000000000000000000000000000000000000000000002620001db640100000000026401000000009004565b81600590805190602001906200013f92919062000299565b5080600690805190602001906200015892919062000299565b506200019663780e9d637c010000000000000000000000000000000000000000000000000000000002620001db640100000000026401000000009004565b620001d3635b5e139f7c010000000000000000000000000000000000000000000000000000000002620001db640100000000026401000000009004565b505062000348565b63ffffffff7c010000000000000000000000000000000000000000000000000000000002817bffffffffffffffffffffffffffffffffffffffffffffffffffffffff1916141515156200022d57600080fd5b6001600080837bffffffffffffffffffffffffffffffffffffffffffffffffffffffff19167bffffffffffffffffffffffffffffffffffffffffffffffffffffffff1916815260200190815260200160002060006101000a81548160ff02191690831515021790555050565b828054600181600116156101000203166002900490600052602060002090601f016020900481019282601f10620002dc57805160ff19168380011785556200030d565b828001600101855582156200030d579182015b828111156200030c578251825591602001919060010190620002ef565b5b5090506200031c919062000320565b5090565b6200034591905b808211156200034157600081600090555060010162000327565b5090565b90565b611fe080620003586000396000f30060806040526004361061011d576000357c0100000000000000000000000000000000000000000000000000000000900463ffffffff16806301ffc9a71461012257806306fdde0314610186578063081812fc14610216578063095ea7b314610283578063167f9246146102d057806318160ddd146102e757806319fa8f50146103125780631aa347dc1461037b57806323b872dd146104215780632f745c591461048e57806342842e0e146104ef5780634f558e791461055c5780634f6ccce7146105a15780636352211e146105e257806370a082311461064f578063862440e2146106a657806395d89b41146106eb578063a22cb4651461077b578063b88d4fde146107ca578063c87b56dd1461087d578063e985e9c514610923575b600080fd5b34801561012e57600080fd5b5061016c60048036038101908080357bffffffffffffffffffffffffffffffffffffffffffffffffffffffff1916906020019092919050505061099e565b604051808215151515815260200191505060405180910390f35b34801561019257600080fd5b5061019b610a05565b6040518080602001828103825283818151815260200191508051906020019080838360005b838110156101db5780820151818401526020810190506101c0565b50505050905090810190601f1680156102085780820380516001836020036101000a031916815260200191505b509250505060405180910390f35b34801561022257600080fd5b5061024160048036038101908080359060200190929190505050610aa7565b604051808273ffffffffffffffffffffffffffffffffffffffff1673ffffffffffffffffffffffffffffffffffffffff16815260200191505060405180910390f35b34801561028f57600080fd5b506102ce600480360381019080803573ffffffffffffffffffffffffffffffffffffffff16906020019092919080359060200190929190505050610ae4565b005b3480156102dc57600080fd5b506102e5610c29565b005b3480156102f357600080fd5b506102fc610c3d565b6040518082815260200191505060405180910390f35b34801561031e57600080fd5b50610327610c4a565b60405180827bffffffffffffffffffffffffffffffffffffffffffffffffffffffff19167bffffffffffffffffffffffffffffffffffffffffffffffffffffffff1916815260200191505060405180910390f35b34801561038757600080fd5b506103a660048036038101908080359060200190929190505050610c71565b6040518080602001828103825283818151815260200191508051906020019080838360005b838110156103e65780820151818401526020810190506103cb565b50505050905090810190601f1680156104135780820380516001836020036101000a031916815260200191505b509250505060405180910390f35b34801561042d57600080fd5b5061048c600480360381019080803573ffffffffffffffffffffffffffffffffffffffff169060200190929190803573ffffffffffffffffffffffffffffffffffffffff16906020019092919080359060200190929190505050610d26565b005b34801561049a57600080fd5b506104d9600480360381019080803573ffffffffffffffffffffffffffffffffffffffff16906020019092919080359060200190929190505050610e31565b6040518082815260200191505060405180910390f35b3480156104fb57600080fd5b5061055a600480360381019080803573ffffffffffffffffffffffffffffffffffffffff169060200190929190803573ffffffffffffffffffffffffffffffffffffffff16906020019092919080359060200190929190505050610ea8565b005b34801561056857600080fd5b5061058760048036038101908080359060200190929190505050610ec9565b604051808215151515815260200191505060405180910390f35b3480156105ad57600080fd5b506105cc60048036038101908080359060200190929190505050610f3b565b6040518082815260200191505060405180910390f35b3480156105ee57600080fd5b5061060d60048036038101908080359060200190929190505050610f73565b604051808273ffffffffffffffffffffffffffffffffffffffff1673ffffffffffffffffffffffffffffffffffffffff16815260200191505060405180910390f35b34801561065b57600080fd5b50610690600480360381019080803573ffffffffffffffffffffffffffffffffffffffff169060200190929190505050610ff1565b6040518082815260200191505060405180910390f35b3480156106b257600080fd5b506106e960048036038101908080359060200190929190803590602001908201803590602001919091929391929390505050611075565b005b3480156106f757600080fd5b50610700611125565b6040518080602001828103825283818151815260200191508051906020019080838360005b83811015610740578082015181840152602081019050610725565b50505050905090810190601f16801561076d5780820380516001836020036101000a031916815260200191505b509250505060405180910390f35b34801561078757600080fd5b506107c8600480360381019080803573ffffffffffffffffffffffffffffffffffffffff1690602001909291908035151590602001909291905050506111c7565b005b3480156107d657600080fd5b5061087b600480360381019080803573ffffffffffffffffffffffffffffffffffffffff169060200190929190803573ffffffffffffffffffffffffffffffffffffffff16906020019092919080359060200190929190803590602001908201803590602001908080601f0160208091040260200160405190810160405280939291908181526020018383808284378201915050505050509192919290505050611303565b005b34801561088957600080fd5b506108a86004803603810190808035906020019092919050505061132b565b6040518080602001828103825283818151815260200191508051906020019080838360005b838110156108e85780820151818401526020810190506108cd565b50505050905090810190601f1680156109155780820380516001836020036101000a031916815260200191505b509250505060405180910390f35b34801561092f57600080fd5b50610984600480360381019080803573ffffffffffffffffffffffffffffffffffffffff169060200190929190803573ffffffffffffffffffffffffffffffffffffffff1690602001909291905050506113f4565b604051808215151515815260200191505060405180910390f35b6000806000837bffffffffffffffffffffffffffffffffffffffffffffffffffffffff19167bffffffffffffffffffffffffffffffffffffffffffffffffffffffff1916815260200190815260200160002060009054906101000a900460ff169050919050565b606060058054600181600116156101000203166002900480601f016020809104026020016040519081016040528092919081815260200182805460018160011615610100020316600290048015610a9d5780601f10610a7257610100808354040283529160200191610a9d565b820191906000526020600020905b815481529060010190602001808311610a8057829003601f168201915b5050505050905090565b60006002600083815260200190815260200160002060009054906101000a900473ffffffffffffffffffffffffffffffffffffffff169050919050565b6000610aef82610f73565b90508073ffffffffffffffffffffffffffffffffffffffff168373ffffffffffffffffffffffffffffffffffffffff1614151515610b2c57600080fd5b8073ffffffffffffffffffffffffffffffffffffffff163373ffffffffffffffffffffffffffffffffffffffff161480610b6c5750610b6b81336113f4565b5b1515610b7757600080fd5b826002600084815260200190815260200160002060006101000a81548173ffffffffffffffffffffffffffffffffffffffff021916908373ffffffffffffffffffffffffffffffffffffffff160217905550818373ffffffffffffffffffffffffffffffffffffffff168273ffffffffffffffffffffffffffffffffffffffff167f8c5be1e5ebec7d5bd14f71427d1e84f3dd0314c0f7b2291e5b200ac8c7c3b92560405160405180910390a4505050565b610c3b33600160098054905001611488565b565b6000600980549050905090565b6301ffc9a77c01000000000000000000000000000000000000000000000000000000000281565b6060600b60008381526020019081526020016000208054600181600116156101000203166002900480601f016020809104026020016040519081016040528092919081815260200182805460018160011615610100020316600290048015610d1a5780601f10610cef57610100808354040283529160200191610d1a565b820191906000526020600020905b815481529060010190602001808311610cfd57829003601f168201915b50505050509050919050565b610d3033826114df565b1515610d3b57600080fd5b600073ffffffffffffffffffffffffffffffffffffffff168373ffffffffffffffffffffffffffffffffffffffff1614151515610d7757600080fd5b600073ffffffffffffffffffffffffffffffffffffffff168273ffffffffffffffffffffffffffffffffffffffff1614151515610db357600080fd5b610dbd8382611574565b610dc78382611677565b610dd18282611833565b808273ffffffffffffffffffffffffffffffffffffffff168473ffffffffffffffffffffffffffffffffffffffff167fddf252ad1be2c89b69c2b068fc378daa952ba7f163c4a11628f55a4df523b3ef60405160405180910390a4505050565b6000610e3c83610ff1565b82101515610e4957600080fd5b600760008473ffffffffffffffffffffffffffffffffffffffff1673ffffffffffffffffffffffffffffffffffffffff16815260200190815260200160002082815481101515610e9557fe5b9060005260206000200154905092915050565b610ec48383836020604051908101604052806000815250611303565b505050565b6000806001600084815260200190815260200160002060009054906101000a900473ffffffffffffffffffffffffffffffffffffffff169050600073ffffffffffffffffffffffffffffffffffffffff168173ffffffffffffffffffffffffffffffffffffffff161415915050919050565b6000610f45610c3d565b82101515610f5257600080fd5b600982815481101515610f6157fe5b90600052602060002001549050919050565b6000806001600084815260200190815260200160002060009054906101000a900473ffffffffffffffffffffffffffffffffffffffff169050600073ffffffffffffffffffffffffffffffffffffffff168173ffffffffffffffffffffffffffffffffffffffff1614151515610fe857600080fd5b80915050919050565b60008073ffffffffffffffffffffffffffffffffffffffff168273ffffffffffffffffffffffffffffffffffffffff161415151561102e57600080fd5b600360008373ffffffffffffffffffffffffffffffffffffffff1673ffffffffffffffffffffffffffffffffffffffff168152602001908152602001600020549050919050565b823373ffffffffffffffffffffffffffffffffffffffff166001600083815260200190815260200160002060009054906101000a900473ffffffffffffffffffffffffffffffffffffffff1673ffffffffffffffffffffffffffffffffffffffff161415156110e357600080fd5b61111f8484848080601f01602080910402602001604051908101604052809392919081815260200183838082843782019150505050505061190a565b50505050565b606060068054600181600116156101000203166002900480601f0160208091040260200160405190810160405280929190818152602001828054600181600116156101000203166002900480156111bd5780601f10611192576101008083540402835291602001916111bd565b820191906000526020600020905b8154815290600101906020018083116111a057829003601f168201915b5050505050905090565b3373ffffffffffffffffffffffffffffffffffffffff168273ffffffffffffffffffffffffffffffffffffffff161415151561120257600080fd5b80600460003373ffffffffffffffffffffffffffffffffffffffff1673ffffffffffffffffffffffffffffffffffffffff16815260200190815260200160002060008473ffffffffffffffffffffffffffffffffffffffff1673ffffffffffffffffffffffffffffffffffffffff16815260200190815260200160002060006101000a81548160ff0219169083151502179055508173ffffffffffffffffffffffffffffffffffffffff163373ffffffffffffffffffffffffffffffffffffffff167f17307eab39ab6107e8899845ad3d59bd9653f200f220920489ca2b5937696c3183604051808215151515815260200191505060405180910390a35050565b61130e848484610d26565b61131a8484848461194a565b151561132557600080fd5b50505050565b606061133682610ec9565b151561134157600080fd5b600b60008381526020019081526020016000208054600181600116156101000203166002900480601f0160208091040260200160405190810160405280929190818152602001828054600181600116156101000203166002900480156113e85780601f106113bd576101008083540402835291602001916113e8565b820191906000526020600020905b8154815290600101906020018083116113cb57829003601f168201915b50505050509050919050565b6000600460008473ffffffffffffffffffffffffffffffffffffffff1673ffffffffffffffffffffffffffffffffffffffff16815260200190815260200160002060008373ffffffffffffffffffffffffffffffffffffffff1673ffffffffffffffffffffffffffffffffffffffff16815260200190815260200160002060009054906101000a900460ff16905092915050565b6114928282611b6c565b600980549050600a60008381526020019081526020016000208190555060098190806001815401808255809150509060018203906000526020600020016000909192909190915055505050565b6000806114eb83610f73565b90508073ffffffffffffffffffffffffffffffffffffffff168473ffffffffffffffffffffffffffffffffffffffff16148061155a57508373ffffffffffffffffffffffffffffffffffffffff1661154284610aa7565b73ffffffffffffffffffffffffffffffffffffffff16145b8061156b575061156a81856113f4565b5b91505092915050565b8173ffffffffffffffffffffffffffffffffffffffff1661159482610f73565b73ffffffffffffffffffffffffffffffffffffffff161415156115b657600080fd5b600073ffffffffffffffffffffffffffffffffffffffff166002600083815260200190815260200160002060009054906101000a900473ffffffffffffffffffffffffffffffffffffffff1673ffffffffffffffffffffffffffffffffffffffff161415156116735760006002600083815260200190815260200160002060006101000a81548173ffffffffffffffffffffffffffffffffffffffff021916908373ffffffffffffffffffffffffffffffffffffffff1602179055505b5050565b60008060006116868585611c12565b600860008581526020019081526020016000205492506116f26001600760008873ffffffffffffffffffffffffffffffffffffffff1673ffffffffffffffffffffffffffffffffffffffff16815260200190815260200160002080549050611d4190919063ffffffff16565b9150600760008673ffffffffffffffffffffffffffffffffffffffff1673ffffffffffffffffffffffffffffffffffffffff1681526020019081526020016000208281548110151561174057fe5b9060005260206000200154905080600760008773ffffffffffffffffffffffffffffffffffffffff1673ffffffffffffffffffffffffffffffffffffffff1681526020019081526020016000208481548110151561179a57fe5b9060005260206000200181905550600760008673ffffffffffffffffffffffffffffffffffffffff1673ffffffffffffffffffffffffffffffffffffffff1681526020019081526020016000208054809190600190036117fa9190611ee3565b50600060086000868152602001908152602001600020819055508260086000838152602001908152602001600020819055505050505050565b600061183f8383611d5a565b600760008473ffffffffffffffffffffffffffffffffffffffff1673ffffffffffffffffffffffffffffffffffffffff168152602001908152602001600020805490509050600760008473ffffffffffffffffffffffffffffffffffffffff1673ffffffffffffffffffffffffffffffffffffffff168152602001908152602001600020829080600181540180825580915050906001820390600052602060002001600090919290919091505550806008600084815260200190815260200160002081905550505050565b61191382610ec9565b151561191e57600080fd5b80600b60008481526020019081526020016000209080519060200190611945929190611f0f565b505050565b60008061196c8573ffffffffffffffffffffffffffffffffffffffff16611eb4565b151561197b5760019150611b63565b8473ffffffffffffffffffffffffffffffffffffffff1663150b7a02338887876040518563ffffffff167c0100000000000000000000000000000000000000000000000000000000028152600401808573ffffffffffffffffffffffffffffffffffffffff1673ffffffffffffffffffffffffffffffffffffffff1681526020018473ffffffffffffffffffffffffffffffffffffffff1673ffffffffffffffffffffffffffffffffffffffff16815260200183815260200180602001828103825283818151815260200191508051906020019080838360005b83811015611a70578082015181840152602081019050611a55565b50505050905090810190601f168015611a9d5780820380516001836020036101000a031916815260200191505b5095505050505050602060405180830381600087803b158015611abf57600080fd5b505af1158015611ad3573d6000803e3d6000fd5b505050506040513d6020811015611ae957600080fd5b8101908080519060200190929190505050905063150b7a027c0100000000000000000000000000000000000000000000000000000000027bffffffffffffffffffffffffffffffffffffffffffffffffffffffff1916817bffffffffffffffffffffffffffffffffffffffffffffffffffffffff19161491505b50949350505050565b600073ffffffffffffffffffffffffffffffffffffffff168273ffffffffffffffffffffffffffffffffffffffff1614151515611ba857600080fd5b611bb28282611833565b808273ffffffffffffffffffffffffffffffffffffffff16600073ffffffffffffffffffffffffffffffffffffffff167fddf252ad1be2c89b69c2b068fc378daa952ba7f163c4a11628f55a4df523b3ef60405160405180910390a45050565b8173ffffffffffffffffffffffffffffffffffffffff16611c3282610f73565b73ffffffffffffffffffffffffffffffffffffffff16141515611c5457600080fd5b611ca76001600360008573ffffffffffffffffffffffffffffffffffffffff1673ffffffffffffffffffffffffffffffffffffffff16815260200190815260200160002054611d4190919063ffffffff16565b600360008473ffffffffffffffffffffffffffffffffffffffff1673ffffffffffffffffffffffffffffffffffffffff1681526020019081526020016000208190555060006001600083815260200190815260200160002060006101000a81548173ffffffffffffffffffffffffffffffffffffffff021916908373ffffffffffffffffffffffffffffffffffffffff1602179055505050565b6000828211151515611d4f57fe5b818303905092915050565b600073ffffffffffffffffffffffffffffffffffffffff166001600083815260200190815260200160002060009054906101000a900473ffffffffffffffffffffffffffffffffffffffff1673ffffffffffffffffffffffffffffffffffffffff16141515611dc857600080fd5b816001600083815260200190815260200160002060006101000a81548173ffffffffffffffffffffffffffffffffffffffff021916908373ffffffffffffffffffffffffffffffffffffffff160217905550611e6d6001600360008573ffffffffffffffffffffffffffffffffffffffff1673ffffffffffffffffffffffffffffffffffffffff16815260200190815260200160002054611ec790919063ffffffff16565b600360008473ffffffffffffffffffffffffffffffffffffffff1673ffffffffffffffffffffffffffffffffffffffff168152602001908152602001600020819055505050565b600080823b905060008111915050919050565b60008183019050828110151515611eda57fe5b80905092915050565b815481835581811115611f0a57818360005260206000209182019101611f099190611f8f565b5b505050565b828054600181600116156101000203166002900490600052602060002090601f016020900481019282601f10611f5057805160ff1916838001178555611f7e565b82800160010185558215611f7e579182015b82811115611f7d578251825591602001919060010190611f62565b5b509050611f8b9190611f8f565b5090565b611fb191905b80821115611fad576000816000905550600101611f95565b5090565b905600a165627a7a7230582089b4251af1c75537f7d208b4fad93178b43be2df4e5f25a9b104fcef5e32be530029",
  "source": "pragma solidity 0.4.24;\n\nimport \"openzeppelin-solidity/contracts/token/ERC721/ERC721Token.sol\";\n\ncontract Property is ERC721Token(\"Property\", \"PPT\") {\n\n  modifier onlyOwner(uint256 _tokenId) {\n    require(tokenOwner[_tokenId] == msg.sender);\n    _;\n  }\n\n  function createProperty() external {\n    _mint(msg.sender, allTokens.length + 1);\n  }\n\n  function setURI(uint256 _tokenId, string _uri) external onlyOwner(_tokenId) {\n    _setTokenURI(_tokenId, _uri);\n  }\n\n  function getURI(uint256 _tokenId) external view returns(string) {\n    return tokenURIs[_tokenId];\n  }\n}\n",
  "sourcePath": "/Users/iansmith/Sites/dairbnb-v2/contracts/Property.sol",
  "compiler": {
    "name": "solc",
    "version": "0.4.24+commit.e67f0147.Emscripten.clang"
  },
  "schemaVersion": "2.0.1",
  "updatedAt": "2018-10-11T19:42:06.321Z"
}