{
  "contractName": "PropertyRegistry",
  "abi": [
    {
      "constant": true,
      "inputs": [
        {
          "name": "",
          "type": "uint256"
        }
      ],
      "name": "stayData",
      "outputs": [
        {
          "name": "price",
          "type": "uint256"
        },
        {
          "name": "stays",
          "type": "uint256"
        },
        {
          "name": "occupant",
          "type": "address"
        },
        {
          "name": "checkInDate",
          "type": "uint256"
        },
        {
          "name": "checkOutDate",
          "type": "uint256"
        },
        {
          "name": "approved",
          "type": "bool"
        },
        {
          "name": "checkedIn",
          "type": "bool"
        }
      ],
      "payable": false,
      "stateMutability": "view",
      "type": "function"
    },
    {
      "constant": true,
      "inputs": [],
      "name": "owner",
      "outputs": [
        {
          "name": "",
          "type": "address"
        }
      ],
      "payable": false,
      "stateMutability": "view",
      "type": "function"
    },
    {
      "inputs": [
        {
          "name": "_property",
          "type": "address"
        },
        {
          "name": "_propertyToken",
          "type": "address"
        }
      ],
      "payable": false,
      "stateMutability": "nonpayable",
      "type": "constructor"
    },
    {
      "constant": false,
      "inputs": [
        {
          "name": "_tokenId",
          "type": "uint256"
        },
        {
          "name": "_price",
          "type": "uint256"
        }
      ],
      "name": "registerProperty",
      "outputs": [],
      "payable": false,
      "stateMutability": "nonpayable",
      "type": "function"
    },
    {
      "constant": false,
      "inputs": [
        {
          "name": "_tokenId",
          "type": "uint256"
        },
        {
          "name": "_checkIn",
          "type": "uint256"
        },
        {
          "name": "_checkOut",
          "type": "uint256"
        }
      ],
      "name": "request",
      "outputs": [],
      "payable": false,
      "stateMutability": "nonpayable",
      "type": "function"
    },
    {
      "constant": false,
      "inputs": [
        {
          "name": "_tokenId",
          "type": "uint256"
        }
      ],
      "name": "approveRequest",
      "outputs": [],
      "payable": false,
      "stateMutability": "nonpayable",
      "type": "function"
    },
    {
      "constant": false,
      "inputs": [
        {
          "name": "_tokenId",
          "type": "uint256"
        }
      ],
      "name": "checkIn",
      "outputs": [],
      "payable": false,
      "stateMutability": "nonpayable",
      "type": "function"
    },
    {
      "constant": false,
      "inputs": [
        {
          "name": "_tokenId",
          "type": "uint256"
        }
      ],
      "name": "checkOut",
      "outputs": [],
      "payable": false,
      "stateMutability": "nonpayable",
      "type": "function"
    }
  ],
  "bytecode": "0x608060405234801561001057600080fd5b50604051604080610a7f8339810180604052810190808051906020019092919080519060200190929190505050816000806101000a81548173ffffffffffffffffffffffffffffffffffffffff021916908373ffffffffffffffffffffffffffffffffffffffff16021790555080600160006101000a81548173ffffffffffffffffffffffffffffffffffffffff021916908373ffffffffffffffffffffffffffffffffffffffff16021790555050506109b0806100cf6000396000f300608060405260043610610083576000357c0100000000000000000000000000000000000000000000000000000000900463ffffffff1680631bd2eeee146100885780637415733b146100b55780638da5cb5b14610154578063c2e10ef8146101ab578063d7d1bbdb146101e2578063e65befd11461020f578063e95a644f14610250575b600080fd5b34801561009457600080fd5b506100b36004803603810190808035906020019092919050505061027d565b005b3480156100c157600080fd5b506100e0600480360381019080803590602001909291905050506103dc565b604051808881526020018781526020018673ffffffffffffffffffffffffffffffffffffffff1673ffffffffffffffffffffffffffffffffffffffff168152602001858152602001848152602001831515151581526020018215151515815260200197505050505050505060405180910390f35b34801561016057600080fd5b50610169610458565b604051808273ffffffffffffffffffffffffffffffffffffffff1673ffffffffffffffffffffffffffffffffffffffff16815260200191505060405180910390f35b3480156101b757600080fd5b506101e0600480360381019080803590602001909291908035906020019092919050505061047e565b005b3480156101ee57600080fd5b5061020d600480360381019080803590602001909291905050506106a1565b005b34801561021b57600080fd5b5061024e6004803603810190808035906020019092919080359060200190929190803590602001909291905050506107d9565b005b34801561025c57600080fd5b5061027b600480360381019080803590602001909291905050506108bd565b005b6003600082815260200190815260200160002060020160009054906101000a900473ffffffffffffffffffffffffffffffffffffffff1673ffffffffffffffffffffffffffffffffffffffff163373ffffffffffffffffffffffffffffffffffffffff161415156102ed57600080fd5b60006003600083815260200190815260200160002060050160016101000a81548160ff021916908315150217905550600060036000838152602001908152602001600020600301819055506000600360008381526020019081526020016000206004018190555060006003600083815260200190815260200160002060050160006101000a81548160ff02191690831515021790555060006003600083815260200190815260200160002060020160006101000a81548173ffffffffffffffffffffffffffffffffffffffff021916908373ffffffffffffffffffffffffffffffffffffffff16021790555050565b60036020528060005260406000206000915090508060000154908060010154908060020160009054906101000a900473ffffffffffffffffffffffffffffffffffffffff16908060030154908060040154908060050160009054906101000a900460ff16908060050160019054906101000a900460ff16905087565b600260009054906101000a900473ffffffffffffffffffffffffffffffffffffffff1681565b813373ffffffffffffffffffffffffffffffffffffffff166000809054906101000a900473ffffffffffffffffffffffffffffffffffffffff1673ffffffffffffffffffffffffffffffffffffffff16636352211e836040518263ffffffff167c010000000000000000000000000000000000000000000000000000000002815260040180828152602001915050602060405180830381600087803b15801561052657600080fd5b505af115801561053a573d6000803e3d6000fd5b505050506040513d602081101561055057600080fd5b810190808051906020019092919050505073ffffffffffffffffffffffffffffffffffffffff1614151561058357600080fd5b60e06040519081016040528083815260200160008152602001600073ffffffffffffffffffffffffffffffffffffffff16815260200160008152602001600081526020016000151581526020016000151581525060036000858152602001908152602001600020600082015181600001556020820151816001015560408201518160020160006101000a81548173ffffffffffffffffffffffffffffffffffffffff021916908373ffffffffffffffffffffffffffffffffffffffff160217905550606082015181600301556080820151816004015560a08201518160050160006101000a81548160ff02191690831515021790555060c08201518160050160016101000a81548160ff021916908315150217905550905050505050565b803373ffffffffffffffffffffffffffffffffffffffff166000809054906101000a900473ffffffffffffffffffffffffffffffffffffffff1673ffffffffffffffffffffffffffffffffffffffff16636352211e836040518263ffffffff167c010000000000000000000000000000000000000000000000000000000002815260040180828152602001915050602060405180830381600087803b15801561074957600080fd5b505af115801561075d573d6000803e3d6000fd5b505050506040513d602081101561077357600080fd5b810190808051906020019092919050505073ffffffffffffffffffffffffffffffffffffffff161415156107a657600080fd5b60016003600084815260200190815260200160002060050160006101000a81548160ff0219169083151502179055505050565b600060036000858152602001908152602001600020600301541415156107fe57600080fd5b81600360008581526020019081526020016000206003018190555080600360008581526020019081526020016000206004018190555060006003600085815260200190815260200160002060050160006101000a81548160ff021916908315150217905550336003600085815260200190815260200160002060020160006101000a81548173ffffffffffffffffffffffffffffffffffffffff021916908373ffffffffffffffffffffffffffffffffffffffff160217905550505050565b6003600082815260200190815260200160002060020160009054906101000a900473ffffffffffffffffffffffffffffffffffffffff1673ffffffffffffffffffffffffffffffffffffffff163373ffffffffffffffffffffffffffffffffffffffff1614151561092d57600080fd5b6003600082815260200190815260200160002060030154421015151561095257600080fd5b60016003600083815260200190815260200160002060050160016101000a81548160ff021916908315150217905550505600a165627a7a7230582088714d64f10bcedf59a7f56789f96153d21fa227cc7c158d3704e44861ad74dd0029",
  "source": "pragma solidity 0.4.24;\n\nimport \"openzeppelin-solidity/contracts/token/ERC721/ERC721Basic.sol\";\nimport 'openzeppelin-solidity/contracts/token/ERC20/ERC20.sol';\n\ncontract PropertyRegistry {\n\n  ERC721Basic property;\n  ERC20 propertyToken;\n\n  address public owner;\n\n  mapping(uint256 => Data) public stayData;\n\n  struct Data {\n    uint256 price;\n    uint256 stays;\n    address occupant;\n    uint256 checkInDate;\n    uint256 checkOutDate;\n    bool approved;\n    bool checkedIn;\n  }\n\n  modifier onlyOwner(uint256 _tokenId) {\n    require(property.ownerOf(_tokenId) == msg.sender);\n    _;\n  }\n\n  constructor(address _property, address _propertyToken) public {\n    property = ERC721Basic(_property);\n    propertyToken = ERC20(_propertyToken);\n  }\n\n  function registerProperty(uint256 _tokenId, uint256 _price) external onlyOwner(_tokenId) {\n    stayData[_tokenId] = Data(_price, 0, address(0),0,0,false,false);\n  }\n\n  function request(uint256 _tokenId, uint256 _checkIn, uint256 _checkOut) external {\n    require(stayData[_tokenId].checkInDate == 0);\n    stayData[_tokenId].checkInDate = _checkIn;\n    stayData[_tokenId].checkOutDate = _checkOut;\n    stayData[_tokenId].approved = false;\n    stayData[_tokenId].occupant = msg.sender;\n  }\n\n  function approveRequest(uint256 _tokenId) external onlyOwner(_tokenId) {\n    stayData[_tokenId].approved = true;\n  }\n\n  function checkIn(uint256 _tokenId) external {\n    require(msg.sender == stayData[_tokenId].occupant);\n    require(now >= stayData[_tokenId].checkInDate);\n    stayData[_tokenId].checkedIn = true;\n  }\n\n  function checkOut(uint256 _tokenId) external {\n    require(msg.sender == stayData[_tokenId].occupant);\n    stayData[_tokenId].checkedIn = false;\n    stayData[_tokenId].checkInDate = 0;\n    stayData[_tokenId].checkOutDate = 0;\n    stayData[_tokenId].approved = false;\n    stayData[_tokenId].occupant = 0;\n  }\n\n}\n",
  "sourcePath": "/Users/iansmith/Sites/dairbnb-v2/contracts/PropertyRegistry.sol",
  "compiler": {
    "name": "solc",
    "version": "0.4.24+commit.e67f0147.Emscripten.clang"
  },
  "schemaVersion": "2.0.1",
  "updatedAt": "2018-10-11T19:42:06.607Z"
}