{
  "contractName": "PropertyRegistry",
  "abi": [
    {
      "constant": true,
      "inputs": [
        {
          "name": "",
          "type": "uint256"
        }
      ],
      "name": "stayData",
      "outputs": [
        {
          "name": "price",
          "type": "uint256"
        },
        {
          "name": "stays",
          "type": "uint256"
        },
        {
          "name": "occupant",
          "type": "address"
        }
      ],
      "payable": false,
      "stateMutability": "view",
      "type": "function"
    },
    {
      "constant": true,
      "inputs": [],
      "name": "owner",
      "outputs": [
        {
          "name": "",
          "type": "address"
        }
      ],
      "payable": false,
      "stateMutability": "view",
      "type": "function"
    },
    {
      "inputs": [
        {
          "name": "_property",
          "type": "address"
        },
        {
          "name": "_propertyToken",
          "type": "address"
        }
      ],
      "payable": false,
      "stateMutability": "nonpayable",
      "type": "constructor"
    },
    {
      "anonymous": false,
      "inputs": [
        {
          "indexed": true,
          "name": "_tokenId",
          "type": "uint256"
        }
      ],
      "name": "Registered",
      "type": "event"
    },
    {
      "anonymous": false,
      "inputs": [
        {
          "indexed": true,
          "name": "_tokenId",
          "type": "uint256"
        }
      ],
      "name": "Approved",
      "type": "event"
    },
    {
      "anonymous": false,
      "inputs": [
        {
          "indexed": true,
          "name": "_tokenId",
          "type": "uint256"
        }
      ],
      "name": "Requested",
      "type": "event"
    },
    {
      "anonymous": false,
      "inputs": [
        {
          "indexed": true,
          "name": "_tokenId",
          "type": "uint256"
        }
      ],
      "name": "CheckIn",
      "type": "event"
    },
    {
      "anonymous": false,
      "inputs": [
        {
          "indexed": true,
          "name": "_tokenId",
          "type": "uint256"
        }
      ],
      "name": "CheckOut",
      "type": "event"
    },
    {
      "constant": false,
      "inputs": [
        {
          "name": "_tokenId",
          "type": "uint256"
        },
        {
          "name": "_price",
          "type": "uint256"
        }
      ],
      "name": "registerProperty",
      "outputs": [],
      "payable": false,
      "stateMutability": "nonpayable",
      "type": "function"
    },
    {
      "constant": false,
      "inputs": [
        {
          "name": "_tokenId",
          "type": "uint256"
        },
        {
          "name": "_checkIn",
          "type": "uint256"
        },
        {
          "name": "_checkOut",
          "type": "uint256"
        }
      ],
      "name": "request",
      "outputs": [],
      "payable": false,
      "stateMutability": "nonpayable",
      "type": "function"
    },
    {
      "constant": false,
      "inputs": [
        {
          "name": "_tokenId",
          "type": "uint256"
        },
        {
          "name": "_guest",
          "type": "address"
        }
      ],
      "name": "approveRequest",
      "outputs": [],
      "payable": false,
      "stateMutability": "nonpayable",
      "type": "function"
    },
    {
      "constant": false,
      "inputs": [
        {
          "name": "_tokenId",
          "type": "uint256"
        }
      ],
      "name": "checkIn",
      "outputs": [],
      "payable": false,
      "stateMutability": "nonpayable",
      "type": "function"
    },
    {
      "constant": false,
      "inputs": [
        {
          "name": "_tokenId",
          "type": "uint256"
        }
      ],
      "name": "checkOut",
      "outputs": [],
      "payable": false,
      "stateMutability": "nonpayable",
      "type": "function"
    },
    {
      "constant": true,
      "inputs": [
        {
          "name": "_tokenId",
          "type": "uint256"
        }
      ],
      "name": "getStayData",
      "outputs": [
        {
          "name": "",
          "type": "uint256"
        },
        {
          "name": "",
          "type": "uint256"
        },
        {
          "name": "",
          "type": "address[]"
        },
        {
          "name": "",
          "type": "address[]"
        },
        {
          "name": "",
          "type": "address"
        }
      ],
      "payable": false,
      "stateMutability": "view",
      "type": "function"
    }
  ],
  "bytecode": "0x608060405234801561001057600080fd5b5060405160408061151a8339810180604052810190808051906020019092919080519060200190929190505050816000806101000a81548173ffffffffffffffffffffffffffffffffffffffff021916908373ffffffffffffffffffffffffffffffffffffffff16021790555080600160006101000a81548173ffffffffffffffffffffffffffffffffffffffff021916908373ffffffffffffffffffffffffffffffffffffffff160217905550505061144b806100cf6000396000f30060806040526004361061008e576000357c0100000000000000000000000000000000000000000000000000000000900463ffffffff1680631bd2eeee146100935780637415733b146100c05780638da5cb5b1461013b578063bc045df814610192578063c2e10ef8146101df578063e65befd114610216578063e95a644f14610257578063f4daaa3514610284575b600080fd5b34801561009f57600080fd5b506100be6004803603810190808035906020019092919050505061038f565b005b3480156100cc57600080fd5b506100eb60048036038101908080359060200190929190505050610696565b604051808481526020018381526020018273ffffffffffffffffffffffffffffffffffffffff1673ffffffffffffffffffffffffffffffffffffffff168152602001935050505060405180910390f35b34801561014757600080fd5b506101506106e0565b604051808273ffffffffffffffffffffffffffffffffffffffff1673ffffffffffffffffffffffffffffffffffffffff16815260200191505060405180910390f35b34801561019e57600080fd5b506101dd60048036038101908080359060200190929190803573ffffffffffffffffffffffffffffffffffffffff169060200190929190505050610706565b005b3480156101eb57600080fd5b5061021460048036038101908080359060200190929190803590602001909291905050506108b7565b005b34801561022257600080fd5b50610255600480360381019080803590602001909291908035906020019092919080359060200190929190505050610b39565b005b34801561026357600080fd5b5061028260048036038101908080359060200190929190505050610e24565b005b34801561029057600080fd5b506102af60048036038101908080359060200190929190505050611196565b6040518086815260200185815260200180602001806020018473ffffffffffffffffffffffffffffffffffffffff1673ffffffffffffffffffffffffffffffffffffffff168152602001838103835286818151815260200191508051906020019060200280838360005b83811015610334578082015181840152602081019050610319565b50505050905001838103825285818151815260200191508051906020019060200280838360005b8381101561037657808201518184015260208101905061035b565b5050505090500197505050505050505060405180910390f35b6003600082815260200190815260200160002060040160009054906101000a900473ffffffffffffffffffffffffffffffffffffffff1673ffffffffffffffffffffffffffffffffffffffff163373ffffffffffffffffffffffffffffffffffffffff161415156103ff57600080fd5b600160009054906101000a900473ffffffffffffffffffffffffffffffffffffffff1673ffffffffffffffffffffffffffffffffffffffff1663a9059cbb6000809054906101000a900473ffffffffffffffffffffffffffffffffffffffff1673ffffffffffffffffffffffffffffffffffffffff16636352211e846040518263ffffffff167c010000000000000000000000000000000000000000000000000000000002815260040180828152602001915050602060405180830381600087803b1580156104cd57600080fd5b505af11580156104e1573d6000803e3d6000fd5b505050506040513d60208110156104f757600080fd5b810190808051906020019092919050505060036000858152602001908152602001600020600001546040518363ffffffff167c0100000000000000000000000000000000000000000000000000000000028152600401808373ffffffffffffffffffffffffffffffffffffffff1673ffffffffffffffffffffffffffffffffffffffff16815260200182815260200192505050602060405180830381600087803b1580156105a457600080fd5b505af11580156105b8573d6000803e3d6000fd5b505050506040513d60208110156105ce57600080fd5b810190808051906020019092919050505015156105ea57600080fd5b60006003600083815260200190815260200160002060040160006101000a81548173ffffffffffffffffffffffffffffffffffffffff021916908373ffffffffffffffffffffffffffffffffffffffff1602179055506003600082815260200190815260200160002060010160008154809291906001019190505550807f2c276699fefbad45f18509233bc03bb9cfdf41b18f32756933188bdef35fef5560405160405180910390a250565b60036020528060005260406000206000915090508060000154908060010154908060040160009054906101000a900473ffffffffffffffffffffffffffffffffffffffff16905083565b600260009054906101000a900473ffffffffffffffffffffffffffffffffffffffff1681565b813373ffffffffffffffffffffffffffffffffffffffff166000809054906101000a900473ffffffffffffffffffffffffffffffffffffffff1673ffffffffffffffffffffffffffffffffffffffff16636352211e836040518263ffffffff167c010000000000000000000000000000000000000000000000000000000002815260040180828152602001915050602060405180830381600087803b1580156107ae57600080fd5b505af11580156107c2573d6000803e3d6000fd5b505050506040513d60208110156107d857600080fd5b810190808051906020019092919050505073ffffffffffffffffffffffffffffffffffffffff1614151561080b57600080fd5b600360008481526020019081526020016000206003018290806001815401808255809150509060018203906000526020600020016000909192909190916101000a81548173ffffffffffffffffffffffffffffffffffffffff021916908373ffffffffffffffffffffffffffffffffffffffff16021790555050827f3ad93af63cb7967b23e4fb500b7d7d28b07516325dcf341f88bebf959d82c1cb60405160405180910390a2505050565b813373ffffffffffffffffffffffffffffffffffffffff166000809054906101000a900473ffffffffffffffffffffffffffffffffffffffff1673ffffffffffffffffffffffffffffffffffffffff16636352211e836040518263ffffffff167c010000000000000000000000000000000000000000000000000000000002815260040180828152602001915050602060405180830381600087803b15801561095f57600080fd5b505af1158015610973573d6000803e3d6000fd5b505050506040513d602081101561098957600080fd5b810190808051906020019092919050505073ffffffffffffffffffffffffffffffffffffffff161415156109bc57600080fd5b60a060405190810160405280838152602001600081526020016000604051908082528060200260200182016040528015610a055781602001602082028038833980820191505090505b5081526020016000604051908082528060200260200182016040528015610a3b5781602001602082028038833980820191505090505b508152602001600073ffffffffffffffffffffffffffffffffffffffff168152506003600085815260200190815260200160002060008201518160000155602082015181600101556040820151816002019080519060200190610a9f929190611352565b506060820151816003019080519060200190610abc929190611352565b5060808201518160040160006101000a81548173ffffffffffffffffffffffffffffffffffffffff021916908373ffffffffffffffffffffffffffffffffffffffff160217905550905050827f1fcb8fd4a09d0facf37b6e1cd47a0cce5aa0b069a1d3d5bd9c223220fa1f5a1c60405160405180910390a2505050565b82828260008060008060036000888152602001908152602001600020600201805490509350600092505b83831015610cf257600360008881526020019081526020016000206005016000600360008a815260200190815260200160002060020185815481101515610ba657fe5b9060005260206000200160009054906101000a900473ffffffffffffffffffffffffffffffffffffffff1673ffffffffffffffffffffffffffffffffffffffff1673ffffffffffffffffffffffffffffffffffffffff168152602001908152602001600020600001549150600360008881526020019081526020016000206005016000600360008a815260200190815260200160002060020185815481101515610c4c57fe5b9060005260206000200160009054906101000a900473ffffffffffffffffffffffffffffffffffffffff1673ffffffffffffffffffffffffffffffffffffffff1673ffffffffffffffffffffffffffffffffffffffff1681526020019081526020016000206001015490508186108015610cc557508185105b80610cda57508086118015610cd957508085115b5b1515610ce557600080fd5b8280600101935050610b63565b600360008b81526020019081526020016000206002013390806001815401808255809150509060018203906000526020600020016000909192909190916101000a81548173ffffffffffffffffffffffffffffffffffffffff021916908373ffffffffffffffffffffffffffffffffffffffff1602179055505060408051908101604052808a815260200189815250600360008c815260200190815260200160002060050160003373ffffffffffffffffffffffffffffffffffffffff1673ffffffffffffffffffffffffffffffffffffffff1681526020019081526020016000206000820151816000015560208201518160010155905050897f54593fbf3d0e13af724316e44a7387ee756ab753993496c7009658e83217002c60405160405180910390a250505050505050505050565b8060008060006003600085815260200190815260200160002060030180549050925060009150600090505b82811015610f46573373ffffffffffffffffffffffffffffffffffffffff166003600086815260200190815260200160002060030182815481101515610e9157fe5b9060005260206000200160009054906101000a900473ffffffffffffffffffffffffffffffffffffffff1673ffffffffffffffffffffffffffffffffffffffff161415610f39576003600085815260200190815260200160002060050160003373ffffffffffffffffffffffffffffffffffffffff1673ffffffffffffffffffffffffffffffffffffffff168152602001908152602001600020600001544210159150610f46565b8080600101915050610e4f565b811515610f5257600080fd5b600160009054906101000a900473ffffffffffffffffffffffffffffffffffffffff1673ffffffffffffffffffffffffffffffffffffffff166323b872dd3330600360008a8152602001908152602001600020600001546040518463ffffffff167c0100000000000000000000000000000000000000000000000000000000028152600401808473ffffffffffffffffffffffffffffffffffffffff1673ffffffffffffffffffffffffffffffffffffffff1681526020018373ffffffffffffffffffffffffffffffffffffffff1673ffffffffffffffffffffffffffffffffffffffff1681526020018281526020019350505050602060405180830381600087803b15801561106157600080fd5b505af1158015611075573d6000803e3d6000fd5b505050506040513d602081101561108b57600080fd5b810190808051906020019092919050505015156110a757600080fd5b336003600087815260200190815260200160002060040160006101000a81548173ffffffffffffffffffffffffffffffffffffffff021916908373ffffffffffffffffffffffffffffffffffffffff1602179055506003600086815260200190815260200160002060050160003373ffffffffffffffffffffffffffffffffffffffff1673ffffffffffffffffffffffffffffffffffffffff16815260200190815260200160002060008082016000905560018201600090555050847fdf06c27528e294967ba5e32e69b9c5fe102a58c699c44740c2c4c6afc719253560405160405180910390a25050505050565b60008060608060006003600087815260200190815260200160002060000154600360008881526020019081526020016000206001015460036000898152602001908152602001600020600201600360008a8152602001908152602001600020600301600360008b815260200190815260200160002060040160009054906101000a900473ffffffffffffffffffffffffffffffffffffffff16828054806020026020016040519081016040528092919081815260200182805480156112b057602002820191906000526020600020905b8160009054906101000a900473ffffffffffffffffffffffffffffffffffffffff1673ffffffffffffffffffffffffffffffffffffffff1681526020019060010190808311611266575b505050505092508180548060200260200160405190810160405280929190818152602001828054801561133857602002820191906000526020600020905b8160009054906101000a900473ffffffffffffffffffffffffffffffffffffffff1673ffffffffffffffffffffffffffffffffffffffff16815260200190600101908083116112ee575b505050505091509450945094509450945091939590929450565b8280548282559060005260206000209081019282156113cb579160200282015b828111156113ca5782518260006101000a81548173ffffffffffffffffffffffffffffffffffffffff021916908373ffffffffffffffffffffffffffffffffffffffff16021790555091602001919060010190611372565b5b5090506113d891906113dc565b5090565b61141c91905b8082111561141857600081816101000a81549073ffffffffffffffffffffffffffffffffffffffff0219169055506001016113e2565b5090565b905600a165627a7a72305820ae8b0013e79ef615f60e3fcf1c021b7203f887ddc408c1e1364ede38ea5c8fac0029",
  "source": "pragma solidity 0.4.24;\n\nimport \"openzeppelin-solidity/contracts/token/ERC721/ERC721Basic.sol\";\nimport 'openzeppelin-solidity/contracts/token/ERC20/ERC20.sol';\n\ncontract PropertyRegistry {\n\n  ERC721Basic property;\n  ERC20 propertyToken;\n\n  address public owner;\n\n  mapping(uint256 => Data) public stayData;\n\n  struct Data {\n    uint256 price;\n    uint256 stays;\n    address[] requested;\n    address[] approved;\n    address occupant;\n    mapping(address => Request) requests;\n  }\n\n  struct Request {\n    uint256 checkIn;\n    uint256 checkOut;\n  }\n\n  event Registered(uint256 indexed _tokenId);\n  event Approved(uint256 indexed _tokenId);\n  event Requested(uint256 indexed _tokenId);\n  event CheckIn(uint256 indexed _tokenId);\n  event CheckOut(uint256 indexed _tokenId);\n\n  modifier onlyOwner(uint256 _tokenId) {\n    require(property.ownerOf(_tokenId) == msg.sender);\n    _;\n  }\n\n  modifier approvedGuest(uint256 _tokenId) {\n    uint arrayLength = stayData[_tokenId].approved.length;\n    bool guestApproved = false;\n    for (uint i=0; i<arrayLength; i++) {\n      if (stayData[_tokenId].approved[i] == msg.sender) {\n        guestApproved = now >= stayData[_tokenId].requests[msg.sender].checkIn;\n        break;\n      }\n    }\n    require(guestApproved);\n    _;\n  }\n\n  modifier availableDates(uint256 _tokenId, uint256  _checkIn, uint256  _checkOut) {\n    uint arrayLength = stayData[_tokenId].requested.length;\n    for (uint i=0; i<arrayLength; i++) {\n      uint256 checkIn = stayData[_tokenId].requests[stayData[_tokenId].requested[i]].checkIn;\n      uint256 checkOut = stayData[_tokenId].requests[stayData[_tokenId].requested[i]].checkOut;\n      require(((_checkIn < checkIn) && (_checkOut < checkIn)) || ((_checkIn > checkOut) && (_checkOut > checkOut)));\n    }\n    _;\n  }\n\n  constructor(address _property, address _propertyToken) public {\n    property = ERC721Basic(_property);\n    propertyToken = ERC20(_propertyToken);\n  }\n\n  function registerProperty(uint256 _tokenId, uint256 _price) external onlyOwner(_tokenId) {\n    stayData[_tokenId] = Data(_price, 0, new address[](0),new address[](0), address(0));\n    emit Registered(_tokenId);\n  }\n\n  function request(uint256 _tokenId, uint256 _checkIn, uint256 _checkOut) external availableDates(_tokenId, _checkIn, _checkOut) {\n    stayData[_tokenId].requested.push(msg.sender);\n    stayData[_tokenId].requests[msg.sender] = Request(_checkIn, _checkOut);\n    emit Requested(_tokenId);\n  }\n\n  function approveRequest(uint256 _tokenId, address _guest) external onlyOwner(_tokenId) {\n    stayData[_tokenId].approved.push(_guest);\n    emit Approved(_tokenId);\n  }\n\n  function checkIn(uint256 _tokenId) external approvedGuest(_tokenId) {\n    require(propertyToken.transferFrom(msg.sender, this, stayData[_tokenId].price));\n    stayData[_tokenId].occupant = msg.sender;\n    delete stayData[_tokenId].requests[msg.sender];\n    emit CheckIn(_tokenId);\n  }\n\n  function checkOut(uint256 _tokenId) external {\n    require(msg.sender == stayData[_tokenId].occupant);\n    require(propertyToken.transfer(property.ownerOf(_tokenId), stayData[_tokenId].price));\n    stayData[_tokenId].occupant = address(0);\n    stayData[_tokenId].stays++;\n    emit CheckOut(_tokenId);\n  }\n\n  function getStayData(uint256 _tokenId) external view returns (uint256, uint256, address[], address[], address) {\n    return (\n      stayData[_tokenId].price,\n      stayData[_tokenId].stays,\n      stayData[_tokenId].requested,\n      stayData[_tokenId].approved,\n      stayData[_tokenId].occupant\n    );\n  }\n\n}\n",
  "sourcePath": "/Users/iansmith/Sites/dairbnb-v2/contracts/PropertyRegistry.sol",
  "compiler": {
    "name": "solc",
    "version": "0.4.24+commit.e67f0147.Emscripten.clang"
  },
  "schemaVersion": "2.0.1",
  "updatedAt": "2018-10-13T03:42:11.865Z"
}