{
  "contractName": "PropertyRegistry",
  "abi": [
    {
      "constant": true,
      "inputs": [],
      "name": "property",
      "outputs": [
        {
          "name": "",
          "type": "address"
        }
      ],
      "payable": false,
      "stateMutability": "view",
      "type": "function"
    },
    {
      "constant": true,
      "inputs": [
        {
          "name": "",
          "type": "uint256"
        }
      ],
      "name": "stayData",
      "outputs": [
        {
          "name": "price",
          "type": "uint256"
        },
        {
          "name": "stays",
          "type": "uint256"
        },
        {
          "name": "occupant",
          "type": "address"
        },
        {
          "name": "checkInDate",
          "type": "uint256"
        },
        {
          "name": "checkOutDate",
          "type": "uint256"
        },
        {
          "name": "approved",
          "type": "bool"
        },
        {
          "name": "checkedIn",
          "type": "bool"
        }
      ],
      "payable": false,
      "stateMutability": "view",
      "type": "function"
    },
    {
      "constant": true,
      "inputs": [],
      "name": "owner",
      "outputs": [
        {
          "name": "",
          "type": "address"
        }
      ],
      "payable": false,
      "stateMutability": "view",
      "type": "function"
    },
    {
      "inputs": [
        {
          "name": "_property",
          "type": "address"
        }
      ],
      "payable": false,
      "stateMutability": "nonpayable",
      "type": "constructor"
    },
    {
      "constant": false,
      "inputs": [
        {
          "name": "_tokenId",
          "type": "uint256"
        },
        {
          "name": "_price",
          "type": "uint256"
        }
      ],
      "name": "registerProperty",
      "outputs": [],
      "payable": false,
      "stateMutability": "nonpayable",
      "type": "function"
    },
    {
      "constant": false,
      "inputs": [
        {
          "name": "_tokenId",
          "type": "uint256"
        },
        {
          "name": "_checkIn",
          "type": "uint256"
        },
        {
          "name": "_checkOut",
          "type": "uint256"
        }
      ],
      "name": "request",
      "outputs": [],
      "payable": false,
      "stateMutability": "nonpayable",
      "type": "function"
    },
    {
      "constant": false,
      "inputs": [
        {
          "name": "_tokenId",
          "type": "uint256"
        }
      ],
      "name": "approveRequest",
      "outputs": [],
      "payable": false,
      "stateMutability": "nonpayable",
      "type": "function"
    },
    {
      "constant": false,
      "inputs": [
        {
          "name": "_tokenId",
          "type": "uint256"
        }
      ],
      "name": "checkIn",
      "outputs": [],
      "payable": false,
      "stateMutability": "nonpayable",
      "type": "function"
    },
    {
      "constant": false,
      "inputs": [
        {
          "name": "_tokenId",
          "type": "uint256"
        }
      ],
      "name": "checkOut",
      "outputs": [],
      "payable": false,
      "stateMutability": "nonpayable",
      "type": "function"
    }
  ],
  "bytecode": "0x608060405234801561001057600080fd5b50604051602080610aba83398101806040528101908080519060200190929190505050806000806101000a81548173ffffffffffffffffffffffffffffffffffffffff021916908373ffffffffffffffffffffffffffffffffffffffff16021790555050610a37806100836000396000f30060806040526004361061008e576000357c0100000000000000000000000000000000000000000000000000000000900463ffffffff168063176fd3f0146100935780631bd2eeee146100ea5780637415733b146101175780638da5cb5b146101b6578063c2e10ef81461020d578063d7d1bbdb14610244578063e65befd114610271578063e95a644f146102b2575b600080fd5b34801561009f57600080fd5b506100a86102df565b604051808273ffffffffffffffffffffffffffffffffffffffff1673ffffffffffffffffffffffffffffffffffffffff16815260200191505060405180910390f35b3480156100f657600080fd5b5061011560048036038101908080359060200190929190505050610304565b005b34801561012357600080fd5b5061014260048036038101908080359060200190929190505050610463565b604051808881526020018781526020018673ffffffffffffffffffffffffffffffffffffffff1673ffffffffffffffffffffffffffffffffffffffff168152602001858152602001848152602001831515151581526020018215151515815260200197505050505050505060405180910390f35b3480156101c257600080fd5b506101cb6104df565b604051808273ffffffffffffffffffffffffffffffffffffffff1673ffffffffffffffffffffffffffffffffffffffff16815260200191505060405180910390f35b34801561021957600080fd5b506102426004803603810190808035906020019092919080359060200190929190505050610505565b005b34801561025057600080fd5b5061026f60048036038101908080359060200190929190505050610728565b005b34801561027d57600080fd5b506102b0600480360381019080803590602001909291908035906020019092919080359060200190929190505050610860565b005b3480156102be57600080fd5b506102dd60048036038101908080359060200190929190505050610944565b005b6000809054906101000a900473ffffffffffffffffffffffffffffffffffffffff1681565b6002600082815260200190815260200160002060020160009054906101000a900473ffffffffffffffffffffffffffffffffffffffff1673ffffffffffffffffffffffffffffffffffffffff163373ffffffffffffffffffffffffffffffffffffffff1614151561037457600080fd5b60006002600083815260200190815260200160002060050160016101000a81548160ff021916908315150217905550600060026000838152602001908152602001600020600301819055506000600260008381526020019081526020016000206004018190555060006002600083815260200190815260200160002060050160006101000a81548160ff02191690831515021790555060006002600083815260200190815260200160002060020160006101000a81548173ffffffffffffffffffffffffffffffffffffffff021916908373ffffffffffffffffffffffffffffffffffffffff16021790555050565b60026020528060005260406000206000915090508060000154908060010154908060020160009054906101000a900473ffffffffffffffffffffffffffffffffffffffff16908060030154908060040154908060050160009054906101000a900460ff16908060050160019054906101000a900460ff16905087565b600160009054906101000a900473ffffffffffffffffffffffffffffffffffffffff1681565b813373ffffffffffffffffffffffffffffffffffffffff166000809054906101000a900473ffffffffffffffffffffffffffffffffffffffff1673ffffffffffffffffffffffffffffffffffffffff16636352211e836040518263ffffffff167c010000000000000000000000000000000000000000000000000000000002815260040180828152602001915050602060405180830381600087803b1580156105ad57600080fd5b505af11580156105c1573d6000803e3d6000fd5b505050506040513d60208110156105d757600080fd5b810190808051906020019092919050505073ffffffffffffffffffffffffffffffffffffffff1614151561060a57600080fd5b60e06040519081016040528083815260200160008152602001600073ffffffffffffffffffffffffffffffffffffffff16815260200160008152602001600081526020016000151581526020016000151581525060026000858152602001908152602001600020600082015181600001556020820151816001015560408201518160020160006101000a81548173ffffffffffffffffffffffffffffffffffffffff021916908373ffffffffffffffffffffffffffffffffffffffff160217905550606082015181600301556080820151816004015560a08201518160050160006101000a81548160ff02191690831515021790555060c08201518160050160016101000a81548160ff021916908315150217905550905050505050565b803373ffffffffffffffffffffffffffffffffffffffff166000809054906101000a900473ffffffffffffffffffffffffffffffffffffffff1673ffffffffffffffffffffffffffffffffffffffff16636352211e836040518263ffffffff167c010000000000000000000000000000000000000000000000000000000002815260040180828152602001915050602060405180830381600087803b1580156107d057600080fd5b505af11580156107e4573d6000803e3d6000fd5b505050506040513d60208110156107fa57600080fd5b810190808051906020019092919050505073ffffffffffffffffffffffffffffffffffffffff1614151561082d57600080fd5b60016002600084815260200190815260200160002060050160006101000a81548160ff0219169083151502179055505050565b6000600260008581526020019081526020016000206003015414151561088557600080fd5b81600260008581526020019081526020016000206003018190555080600260008581526020019081526020016000206004018190555060006002600085815260200190815260200160002060050160006101000a81548160ff021916908315150217905550336002600085815260200190815260200160002060020160006101000a81548173ffffffffffffffffffffffffffffffffffffffff021916908373ffffffffffffffffffffffffffffffffffffffff160217905550505050565b6002600082815260200190815260200160002060020160009054906101000a900473ffffffffffffffffffffffffffffffffffffffff1673ffffffffffffffffffffffffffffffffffffffff163373ffffffffffffffffffffffffffffffffffffffff161415156109b457600080fd5b600260008281526020019081526020016000206003015442101515156109d957600080fd5b60016002600083815260200190815260200160002060050160016101000a81548160ff021916908315150217905550505600a165627a7a723058206a03d674a22d4c91c9210467d07db91100dc9ee8c8d6e0a25982a3a76da8c90b0029",
  "source": "pragma solidity 0.4.24;\n\nimport \"openzeppelin-solidity/contracts/token/ERC721/ERC721Basic.sol\";\n\ncontract PropertyRegistry {\n\n  ERC721Basic public property;\n\n  address public owner;\n\n  mapping(uint256 => Data) public stayData;\n\n  struct Data {\n    uint256 price;\n    uint256 stays;\n    address occupant;\n    uint256 checkInDate;\n    uint256 checkOutDate;\n    bool approved;\n    bool checkedIn;\n  }\n\n\n  constructor(address _property) public {\n    property = ERC721Basic(_property);\n  }\n  modifier onlyOwner(uint256 _tokenId) {\n    require(property.ownerOf(_tokenId) == msg.sender);\n    _;\n  }\n\n  function registerProperty(uint256 _tokenId, uint256 _price) external onlyOwner(_tokenId) {\n    stayData[_tokenId] = Data(_price, 0, address(0),0,0,false,false);\n  }\n\n  function request(uint256 _tokenId, uint256 _checkIn, uint256 _checkOut) external {\n    require(stayData[_tokenId].checkInDate == 0);\n    stayData[_tokenId].checkInDate = _checkIn;\n    stayData[_tokenId].checkOutDate = _checkOut;\n    stayData[_tokenId].approved = false;\n    stayData[_tokenId].occupant = msg.sender;\n  }\n\n  function approveRequest(uint256 _tokenId) external onlyOwner(_tokenId) {\n    stayData[_tokenId].approved = true;\n  }\n\n  function checkIn(uint256 _tokenId) external {\n    require(msg.sender == stayData[_tokenId].occupant);\n    require(now >= stayData[_tokenId].checkInDate);\n    stayData[_tokenId].checkedIn = true;\n  }\n\n  function checkOut(uint256 _tokenId) external {\n    require(msg.sender == stayData[_tokenId].occupant);\n    stayData[_tokenId].checkedIn = false;\n    stayData[_tokenId].checkInDate = 0;\n    stayData[_tokenId].checkOutDate = 0;\n    stayData[_tokenId].approved = false;\n    stayData[_tokenId].occupant = 0;\n  }\n\n}\n",
  "sourcePath": "/Users/iansmith/Sites/dairbnb-v2/contracts/PropertyRegistry.sol",
  "compiler": {
    "name": "solc",
    "version": "0.4.24+commit.e67f0147.Emscripten.clang"
  },
  "schemaVersion": "2.0.1",
  "updatedAt": "2018-10-11T19:29:36.984Z"
}